:020000040800F2
:10000000500D0020450100085D100008A10F0008F8
:10001000591000082D0A0008A52E00080000000055
:10002000000000000000000000000000051D0008A6
:10003000BD0D000800000000ED1B0008F11D0008C8
:100040005F0100085F0100085F0100085F01000810
:100050005F0100085F0100085F0100085F01000800
:100060005F0100085F0100085F0100085F010008F0
:100070005F0100085F0100085F0100085F010008E0
:100080005F0100085F0100085F0100085F010008D0
:100090005F0100085F0100085F0100085F010008C0
:1000A0005F0100082D2100085F0100085F010008C2
:1000B0005F0100085F010008992300085F01000844
:1000C0005F0100085F0100085F0100085F01000890
:1000D0005F0100085F010008552C00085F0100085F
:1000E0005F0100085F0100085F0100085F01000870
:1000F0005F0100085F0100085F0100085F01000860
:100100005F0100085F0100085F0100085F0100084F
:100110005F0100085F0100085F0100085F0100083F
:100120005F0100085F0100085F0100085F0100082F
:10013000DFF80CD000F074FB004800474938000895
:10014000500D00200648804706480047FEE7FEE7BE
:10015000FEE7FEE7FEE7FEE7FEE7FEE7FEE7FEE777
:100160008D1E000831010008F0B480EA0102D40FAE
:100170004200B2EB410F02D20246084611464A0045
:1001800042D0C30DDDB2C1F3C752AD1A202D35DA0E
:10019000C1F3160141F4000204B15242C5F1200638
:1001A00002FA06F12A411044B3EBD05F23D0C4B168
:1001B000012DA0EBC35009DCF0BC4FF0004202EA75
:1001C000C352DBB200F5000000F048B9400000F176
:1001D000807000EBC350A0F1807040EAD1704900FC
:1001E00009E0490841EAC071A0EBC35000F50000E6
:1001F000400800EBC350F0BC00F027B96142012277
:1002000002EB4101001BF6E7F0BC704781F00041B2
:10021000AAE780F00040A7E780EA010210B502F0EB
:100220000043400022D04A001FD0010E01EB1261B2
:10023000C0F35600C2F3560240F4000042F400023C
:10024000A0FB022000047F39140400D0401C50EAB7
:10025000124001D44000491EC2B20C0604EBD0107B
:10026000401C4008802A02D003E0002010BD20F08E
:100270000100002900DA0020184310BD30B480EAE4
:10028000010202F0004530F0004221F0004013D09E
:1002900090B1C30DD40DC2F31601C0F31600E41AD9
:1002A00041F4000140F400027D34914201D3641C0A
:1002B00000E04900002C02DA30BC002070474FF407
:1002C00000000023914201D3891A034340084FEAFA
:1002D0004101F7D151B1914202D14FF0004105E007
:1002E00002D24FF0010101E06FF0010103EBC450B5
:1002F000284430BC00F0A9B8C10F80EAE07008447F
:10030000CA079623002100F0A9B8962300221146BF
:1003100000F0A4B800F0004220F00040C10DC0F38E
:10032000160040F400007F2901DA0020704796296A
:1003300003DCC1F19601C84001E096398840002AEB
:10034000F4D04042704720F00040C10DC0F31600C9
:1003500040F400007F2901DA00207047962903DC71
:10036000C1F19601C840704796398840704700F047
:10037000004230F000400AD0C10D01F56071C0F3B9
:10038000160042EA0151C20840071143704700209D
:1003900001467047002801DBC0F10040002901DB65
:1003A000C1F1004181427047002801DBC0F10040EB
:1003B000002901DBC1F100418842704730B50B468E
:1003C000014600202022012409E021FA02F59D4285
:1003D00005D303FA02F5491B04FA02F52844151E59
:1003E000A2F10102F1DC30BD2DE9F05F05460020ED
:1003F00092469B4688460646814640241BE0284696
:1004000041464746224600F02CFA53465A46C01A47
:10041000914110D311461846224600F013FA2D1AC6
:1004200067EB01084F4622460120002100F00AFA3E
:1004300017EB00094E41201EA4F10104DFDC484601
:1004400031462A464346BDE8F09F0029A8BF7047C1
:10045000401C490008BF20F00100704710B4B0FAFA
:1004600080FC00FA0CF050EA010404BF10BC704795
:1004700049B1CCF1200421FA04F411FA0CF118BFAF
:10048000012121430843A3EB0C01CB1D4FEA00617E
:100490004FEA102042BF002010BC704700EBC35051
:1004A00010440029A4BF10BC7047401C490008BF7D
:1004B00020F0010010BC70472DE9FE4F804681EA14
:1004C0000300C00F0C46009021F0004123F00045CE
:1004D000B8EB0200A94105D24046214690461C4691
:1004E0000B46024623F00040104347D0270DC7F3C8
:1004F0000A00C3F30A510290401A019040286BDAB7
:10050000C3F3130040F4801B0098924620B10023EF
:10051000D2EB030A63EB0B0B01985946C0F1400282
:10052000504600F08FF906460D4650465946019A4E
:1005300000F0A7F910EB08006141002487EA11528E
:1005400084EAE7731A4340D0009A62B3019A012A01
:100550004FEA075215DC001B61EB02014FF000422D
:1005600002EA0752CDE90042001C41F580113246F3
:100570002B4600F0A5F903B0BDE8F08F40462146B8
:10058000F9E7001B61EB0201001C41F58013001824
:100590005B412018A2F5001747EB030140EAD57034
:1005A000B6196D4111E06D084FEA360645EAC0758F
:1005B0004FEA0752001B61EB0201001C41F580115C
:1005C00049084FEA30000019514132462B4603B02A
:1005D000BDE8F04F00F067B9009801224000002309
:1005E000D0EB020263EBE073009821464FEAE0741F
:1005F000B8EB000061EB0401E9E783F000435BE73F
:1006000081F0004158E72DE9FE4F81EA030404F030
:10061000004421F0004100944FF0000B23F0004310
:1006200050EA01045ED052EA03045BD0C3F30A54DB
:10063000C1F30A552C44A4F2F3340194A0FB0254F4
:10064000C1F3130141F48011C3F3130343F4801386
:1006500001FB024400FB034E840A970A44EA8154DA
:1006600047EA8357A4FB076802958D0A05FB0785B7
:100670004FEA932C04FB0C542705029D4FEA0658C1
:1006800047EA1637B5EB08056EEB070C870E920E9E
:1006900047EA811742EA8312A7FB0201B6EB0B017E
:1006A00064EB00042B0D43EA0C335E1844EB1C5042
:1006B000DA465146E7FB0201C5F313044FEA0B3358
:1006C00043EA14534FEA0432019C43EA0603A4F1BF
:1006D0000C040294009CCDE900B400F0F1F803B0E2
:1006E000BDE8F08F00200146F9E72DE9F04D81EAE1
:1006F000030404F0004B21F0004514464FF0000ABB
:1007000023F0004150EA050220D054EA01021DD036
:10071000C5F30A570246C5F31303C1F31300C1F32F
:100720000A5640F4801543F48013A7EB0608101B0B
:10073000D64608F2FD3873EB050002D308F1010834
:1007400001E092185B41B8F1000F03DA0020014686
:10075000BDE8F08D00204FF48011064684460EE07F
:10076000171B73EB050705D3121B63EB0503064349
:100770004CEA010C49084FEA300092185B4150EAFC
:100780000107EDD152EA030012D082EA040083EAA5
:100790000501084305D0101BAB4106D201220023FE
:1007A00006E000224FF0004302E06FF00102531018
:1007B0001AEB06004CEB085110EB0A0041EB0B0161
:1007C000BDE8F04D00F06FB8C1F30A52C1F3130158
:1007D00040F2FF3341F480119A4202DA00200146D0
:1007E000704740F233439A42A2F2334202DC524253
:1007F00000F037B800F026B830B5002904DB4FF020
:100800000044404264EB0101002B04DB4FF0004444
:10081000524264EB0303994208BF904230BD00008E
:10082000064C074D06E0E06840F0010394E807003D
:1008300098471034AC42F6D3FFF77EFCF84400082A
:1008400018450008202A04DB203A00FA02F10020B3
:1008500070479140C2F1200320FA03F319439040FE
:100860007047202A04DB203A21FA02F00021704769
:1008700021FA02F3D040C2F1200291400843194608
:100880007047202A06DBCB17203A41FA02F043EAF0
:10089000E07306E041FA02F3D040C2F12002914039
:1008A00008431946704710B5002B08DA401C41F187
:1008B000000192185B411A4301D120F0010010BDE4
:1008C0002DE9F04D92469B4611B1B1FA81F202E05A
:1008D000B0FA80F220329046FFF7B4FF04460F468C
:1008E00040EA0A0041EA0B0153465A46084313D036
:1008F000114653EA010019D0C8F140025046FFF7F3
:10090000B0FF05460E46504659464246FFF79AFF4D
:10091000084305D0012004E020463946BDE8F08DAB
:100920000020054346EAE0762C4337430A986305E6
:10093000E40AA0EB08000022FD0A44EA47540A300A
:1009400002D500200146E9E7010510196941DDE9FA
:10095000084500196941BDE8F04DA4E770B58C1851
:1009600010F8015B15F0070301D110F8013B2A11C3
:1009700006D110F8012B03E010F8016B01F8016BB0
:100980005B1EF9D12B0705D40023521E0DD401F8AC
:10099000013BFAE710F8013BCB1A921C03E013F875
:1009A000015B01F8015B521EF9D5A142D8D30020AA
:1009B00070BD10B500F004F800F090FA10BD000012
:1009C00010B51549B1F90000FFF796FC13494860CE
:1009D0001149B1F90200FFF78FFC1049C1F8FC0082
:1009E0000F4800688860084600F09AFD0D480168CD
:1009F0000A48C0F80011F83000F092FD00210748C5
:100A0000C0F8F4110848B0F90000FFF775FC03497D
:100A1000C1F8700210BD0000C0030020680600206D
:100A20004C03002050030020BE03002000BFFEE75F
:100A30002DE9FE4F06460C461546A660E168A868FB
:100A4000FFF7EAFB029021696868FFF7E5FB824641
:100A500021686869FFF7E0FB019061682869FFF78A
:100A6000DBFB0090A168E868FFF7D6FB834600999E
:100A7000FFF77AFB81460199FFF776FB80465146E6
:100A8000FFF7C4FB07460299FFF7C0FB606160688F
:100A90002060A06860602069E06061692161606930
:100AA000BDE8FE8F2DE9F0417A48008800F57A70A4
:100AB000784908800846008840F2AA51884279DBCC
:100AC00074480088FFF721FC07467348D0F8A4114A
:100AD0003846FFF79BFB06466F48D0F8AC1030460F
:100AE000FFF794FB05466C48D0F89C122846FFF7A8
:100AF0003BFB0446FFF70EFC684908806548008808
:100B0000FFF703FC07466448D0F8A4113846FFF706
:100B10002BFB06466048D0F8AC103046FFF724FBAC
:100B200005465D48D0F89C122846FFF71DFB044699
:100B3000FFF7F0FB5A49088056480088FFF7E5FBAD
:100B400007465548D0F8A4113846FFF70DFB064676
:100B50005148D0F8AC103046FFF758FB05464E48D8
:100B6000D0F89C122846FFF751FB0446FFF7D2FB52
:100B70004C49088047480088FFF7C7FB07464648AE
:100B8000D0F8A4113846FFF741FB06464248D0F89A
:100B9000AC103046FFF7E8FA05463F48D0F89C1203
:100BA0002846FFF733FB0446FFF7B4FB3E490880B5
:100BB00012E0FFE737480088384908803548008848
:100BC0003749088033480088364908803148008812
:100BD0003549088001F0D8FF304802884FF4FA61A7
:100BE000002002F061F92D4908802D4802884FF459
:100BF000FA61002002F058F9294908802948028842
:100C00004FF4FA61002002F04FF926490880264887
:100C100002884FF4FA61002002F046F92249088068
:100C2000084603881F4802881D4801881B48008821
:100C300000F0C2FF1D480068B0F5E16F0EDB1C48F4
:100C4000008840F63401884203DB084618490880D2
:100C500004E017480088401C1549088013480068C4
:100C6000B0F5AF6F0EDC1248008840F24C4188426C
:100C700003DC08460E49088004E00D480088401E49
:100C80000B4908800A4801884FF0804001F0F6FEC9
:100C9000BDE8F081B8030020680600203004002081
:100CA000320400203404002036040020B403002065
:100CB0003804002036490A780978491C344B1970E9
:100CC000344988540978552903D000211A461170F7
:100CD00070472F4909780B2900DAF9E72D4949783F
:100CE000503909294ED2DFE801F0050D151D252DDB
:100CF000353D45002849274A921C13680B6052680D
:100D00004A603FE02549234A921C13680B605268F1
:100D10004A6037E022491F4A921C13680B605268F0
:100D20004A602FE01F491B4A921C13680B605268EF
:100D30004A6027E01C49174A921C13680B605268EE
:100D40004A601FE01949134A921C13680B605268ED
:100D50004A6017E016490F4A921C13680B605268EC
:100D60004A600FE013490B4A921C13680B605268EB
:100D70004A6007E01049074A921C13680B605268EA
:100D80004A6000BF00BF0021014A117000BF9FE709
:100D9000120400206E050020C8030020D0030020AC
:100DA000D8030020E0030020E8030020F003002027
:100DB000F8030020000400200804002070472DE9FB
:100DC000F0410246002500260020002300240027D1
:100DD00091F803C00CF00F0591F803C00CF0100C53
:100DE000BCF1000F03D091F802C04CEA050591F860
:100DF00000C0BCF1000F31D0146800202BE04FF090
:100E0000010C0CFA00F3B1F800C00CEA03069E4294
:100E100020D183004FF00F0C0CFA03F7BC4305FA06
:100E200003FC4CEA040491F803C0BCF1280F06D17E
:100E30004FF0010C0CFA00FCC2F814C00AE091F863
:100E400003C0BCF1480F05D14FF0010C0CFA00FCB7
:100E5000C2F810C0401C0828D1D31460B1F800C0FB
:100E6000BCF1FF0F34DD546800202EE000F1080CC7
:100E70004FF0010808FA0CF3B1F800C00CEA0306C1
:100E80009E4221D183004FF00F0C0CFA03F7BC43B4
:100E900005FA03FC4CEA040491F803C0BCF1280FE6
:100EA00005D100F1080C08FA0CF8C2F8148091F88A
:100EB00003C0BCF1480F07D100F1080C4FF0010846
:100EC00008FA0CF8C2F81080401C0828CED35460F1
:100ED000BDE8F081416170470161704710B52A4853
:100EE000016BC0F88010D0F82811C0F8781127489D
:100EF00001682548C0F88410254801682248C0F8D8
:100F00007C117C3000F098FB224800F095FB2248D1
:100F100001681D48C0F8741200F51B7000F08CFBCE
:100F20001948D0F870121D480068FFF775F904469B
:100F30001548D0F89C122046FFF716F91249C1F85F
:100F40009C020A46D2F82812D2F89C02FFF72CFA2B
:100F500004D80D48D0F82812C0F89C120A48D0F8DE
:100F6000280280F000440848D0F89C122046FFF781
:100F70001BFA07D80448D0F8280280F00041024844
:100F8000C0F89C1210BD0000680600205803002025
:100F90005C030020DC070020540300201404002020
:100FA00000BFFEE710B586B004460121274800F0D7
:100FB0001FFE0420ADF8140018208DF81700032040
:100FC0008DF8160005A92248FFF7F9FE0820ADF8B4
:100FD000140004208DF8170005A91D48FFF7EFFE47
:100FE00001940020ADF80800ADF80A00ADF80C003F
:100FF000ADF810000C20ADF80E0001A9154801F065
:10100000E1FE002240F22771124801F0B5FE0122F4
:1010100040F225510F4801F0AFFE40210D4801F08C
:101020005DFE01210B4801F071FE26208DF80000C5
:1010300001208DF8010008208DF8020001208DF8B4
:101040000300684600F020F806B010BD040002005E
:10105000000801400044004000BFFEE7704708B5AB
:101060004FF4A06000F048F819208DF8000003202C
:101070008DF8010000208DF8020001208DF803009A
:10108000684600F001F808BD70B5002100230F226A
:10109000C47804B3154C246804F4E064C4F5E06437
:1010A000210AC1F10403CA40447804FA03F18478A8
:1010B0001440214309010E4C0678A155047804F030
:1010C0001F050124AC4005786D11AD0005F1E02548
:1010D000C5F8004109E0047804F01F050124AC4084
:1010E000044D0678761145F8264070BD0CED00E001
:1010F00000E400E080E100E002490143024A11609F
:10110000704700000000FA050CED00E070B5002407
:1011100019E004F1B001C8B2002100F0BDF90021CE
:10112000084600F0B9F90021102000F0B5F90025BB
:1011300005E00121002000F0AFF9681CC5B2802D48
:10114000F7DB601CC4B2082CE3DB70BD08B50121DD
:10115000042000F05DFD4FF48070ADF80000102019
:101160008DF8030003208DF8020069465748FFF709
:1011700026FE4FF480715548FFF7AEFE012108208E
:1011800000F046FD4FF47040ADF8000010208DF8DF
:10119000030003208DF8020069464D48FFF70FFE5B
:1011A0004FF470414A48FFF797FE4FF4804148489A
:1011B000FFF792FE642002F0F3FA4FF480414448B6
:1011C000FFF788FEC82002F0EBFA4FF48041404858
:1011D000FFF782FE0021AE2000F05EF900210846F4
:1011E00000F05AF90021102000F056F900214020AB
:1011F00000F052F90021812000F04EF90021CF20AB
:1012000000F04AF90021A12000F046F90021C82091
:1012100000F042F90021A62000F03EF90021A820AC
:1012200000F03AF900213F2000F036F90021D320E8
:1012300000F032F90021084600F02EF90021D520F7
:1012400000F02AF90021802000F026F90021D920A1
:1012500000F022F90021F12000F01EF90021DA202F
:1012600000F01AF90021122000F016F90021DB200D
:1012700000F012F90021402000F00EF9002120209A
:1012800000F00AF90021022000F006F900218D206B
:1012900000F002F90021142000F0FEF80021A42043
:1012A00000F0FAF80021A62000F0F6F80021AF20A7
:1012B00000F0F2F80021AF2000F0EEF8FFF726FF73
:1012C0000021084600F006F808BD000000080140B3
:1012D000000C014070B504460D4605F1B001C8B2DE
:1012E000002100F0D9F8102141EA1410002100F08B
:1012F000D3F804F00F0141F00100002100F0CCF818
:1013000070BD00002DE9F04180460E4615460027CD
:1013100031464046FFF7DEFF00240AE0124A02EBA6
:101320008511085D012100F0B7F8781CC7B2601C78
:10133000C4B2102CF2DB701CC1B24046FFF7CAFFEA
:1013400000240CE06900491C074A02EB4111085DCA
:10135000012100F0A1F8781CC7B2601CC4B2102CA7
:10136000F0DBBDE8F0810000060000202DE9F0412F
:1013700007460E46904600250024A8F12000C5B27D
:101380007F2F02DD0027B01CC6B231463846FFF77A
:10139000A1FF002408E004EB05110F4A505C012175
:1013A00000F07AF8601CC4B2082CF4DB701CC1B2E7
:1013B0003846FFF78FFF002409E004EB05110831E0
:1013C000054A505C012100F067F8601CC4B2082C8B
:1013D000F3DBBDE8F0810000703D00082DE9FF5F00
:1013E000074691461D460E9E4FF0000A002433E04A
:1013F000281B401EC1B20A2002F08AFBB9FBF0F0A4
:101400000A21B0FBF1F201FB1208BAF1000F13D16F
:10141000681EA04210DDB8F1000F0BD1B34606EBF9
:10142000DB71491001FB0471C8B220220199FFF75A
:101430009DFF0FE04FF0010AB34606EBDB71491048
:1014400001FB0471C8B208F13001CAB20199FFF77B
:101450008DFF00BF601CC4B2AC42C9DBBDE8FF9F7A
:101460002DE9F04104460F46154600260EE0AA5D20
:1014700039462046FFF77AFF04F10800C4B2782C01
:1014800002DD0024B81CC7B2701CC6B2A85D0028DB
:10149000EDD1BDE8F081000070B504460E462EB1D6
:1014A0004FF400411C48FFF717FD04E04FF40041E2
:1014B0001948FFF70FFD4FF480711848FFF70AFD38
:1014C00000251BE04FF480511348FFF703FD04F0A3
:1014D000800028B14FF400510F48FFF7FDFC04E0F5
:1014E0004FF400510C48FFF7F5FC4FF480510A48C7
:1014F000FFF7F2FC6006040E681CC5B2082DE1DBA4
:101500004FF480710548FFF7E7FC4FF400410248B3
:10151000FFF7E2FC70BD0000000C01400008014034
:101520002DE9F0410446E0682061D4E90101FEF7AD
:101530006DFEE060207800F0010090B16169E06824
:10154000FEF732FF01D86069E060606980F0004515
:101550002846E168FEF728FF03D8606980F0004064
:10156000E0602078C0F38000C0B10021E068FEF7A1
:101570001BFF01D2E06802E0E06880F00040054611
:10158000A169FEF707FF12D8E168A06AFEF744FEE2
:101590000546E169FEF7E8FDE06108E0E168A06A60
:1015A000FEF73AFE0546E169FEF7DEFDE0612078D0
:1015B000C0F3400090B1D4E90701FEF7F5FE01D871
:1015C000206AE061206A80F000452846E169FEF764
:1015D000EBFE03D8206A80F00040E061206B60637E
:1015E000D4E90301FEF712FE0746E16AFEF714FE96
:1015F0000546E168606AFEF70FFE0746E169FEF7FF
:10160000B3FD06462946FEF7AFFD2063A16B206BB4
:10161000FEF7CAFE01D8A06B2063A06B80F00045E6
:101620002846216BFEF7C0FE03D8A06B80F0004077
:101630002063206BBDE8F0812DE9F04104460025D0
:10164000E0682061D4E90101FEF7E0FDE060D4E943
:101650000301FEF7DBFD206404250AE0681E04F1A7
:10166000440151F8201004F1440040F82510681E90
:1016700005B2002DF2DC424A04F16401206CFFF750
:10168000D7F96064207800F0010090B16169E068EA
:10169000FEF78AFE01D86069E060606980F000466C
:1016A0003046E168FEF780FE03D8606980F00040B4
:1016B000E0602078C0F38000C0B10021E068FEF750
:1016C00073FE01D2E06802E0E06880F00040064668
:1016D000A169FEF75FFE12D8E168A06AFEF79CFDE3
:1016E0000646E169FEF740FDE06108E0E168A06AB6
:1016F000FEF792FD0646E169FEF736FDE0612078CF
:10170000C0F3400090B1D4E90701FEF74DFE01D8C7
:10171000206AE061206A80F000463046E169FEF709
:1017200043FE03D8206A80F00040E061206B6063D4
:10173000616CE06AFEF770FD0746E168606AFEF7DB
:101740006BFD8046E169FEF70FFD06463946FEF760
:101750000BFD2063A16B206BFEF726FE01D8A06B6A
:101760002063A06B80F000463046216BFEF71CFE24
:1017700003D8A06B80F000402063206BBDE8F081AF
:101780001804002070B504460D4605EB05113B4AD0
:1017900052F82100FEF7D7FD217860F30001217097
:1017A00005EB0511354A02EB81014868FEF7CBFDD8
:1017B000217860F34101217005EB05112F4A02EBFE
:1017C00081018868FEF7BFFD217860F382012170F6
:1017D00005EB0510294901EB8000C068606005EB4E
:1017E000051001EB80000069A06005EB051001EB1E
:1017F00080004069E06005EB051001EB8000806926
:10180000206105EB051001EB8000C069606105EB0C
:10181000051001EB8000006AA06105EB051001EBEB
:101820008000406AE06105EB051001EB8000806AF2
:10183000206205EB051001EB8000C06A606205EBD9
:10184000051001EB8000006BA06205EB051001EBB9
:101850008000406BE06205EB051001EB8000806BBF
:10186000206305EB051001EB8000C06B606305EBA6
:10187000051001EB8000006CA06370BD60430008A0
:101880000021C161704700005A480068B0F5B96F87
:101890000DDC5848006840F2AA51081A322148432A
:1018A000C90090FBF1F000B25349088015E051489F
:1018B0000068B0F5BE6F0DDB4E48006840F20E6167
:1018C000081A32214843C90090FBF1F000B24A499E
:1018D000088002E00020484908804848006840F23B
:1018E000AA5188420BDC45480068081A3221484357
:1018F000C90090FBF1F000B24149088014E03F4874
:10190000006840F20E6188420BDB3C480068081A10
:1019100032214843C90090FBF1F000B238490880F9
:1019200002E000203649088035480088404200B275
:101930003449088030480088404200B2488032482C
:101940000088A0F24C4000B2304908800846B0F947
:101950000000052803DC00202D4908800EE02B48FC
:10196000B0F90000B0F57A7F04DB4FF47A702849B3
:10197000088003E02548008825490880254800683C
:1019800040F2AA5188420BDC22480068081AC8219C
:101990004843490090FBF1F000B21F49088014E071
:1019A0001C48006840F20E6188420BDB1948006851
:1019B000081AC8214843490090FBF1F000B21649CB
:1019C000088002E00020144908801348B0F90000A4
:1019D000C82803DBC8201049088009E00E48B0F988
:1019E000000010F1C80F03DC6FF0C7000A4908803F
:1019F00070470000A8030020BC030020AC030020B7
:101A0000BA030020C0030020B0030020C40300205C
:101A1000B8030020B4030020BE03002030B587B017
:101A2000002400250121084600F0E2F82048006863
:101A30002049B0FBF1F0401E84B244F62060ADF8BE
:101A400014000020ADF81000ADF81600ADF812003B
:101A50008DF8180004A94FF0804001F043F80122EE
:101A60002146900701F005F86020ADF80000012044
:101A7000ADF80200ADF806500020ADF80800694648
:101A80004FF0804000F0E0FE0121880700F0EAFD01
:101A90000821C80600F037FF0121880700F0F4FD97
:101AA0004FF47A71C80600F0E9FF07B030BD0000BE
:101AB0003C04002040420F0008B50121022000F044
:101AC00097F80121084600F0A3F80121082000F052
:101AD0009FF8C220ADF8000018208DF80300032005
:101AE0008DF8020069460548FFF769F90320ADF853
:101AF000000069460248FFF762F908BD000801408E
:101B0000000C014030B587B000240025FFF7D4FF5A
:101B1000264800682649B0FBF1F0401E84B244F626
:101B20002060ADF814000020ADF81000ADF81600EC
:101B3000ADF812008DF8180004A91E4800F0D2FF7D
:101B4000012221461B4800F094FF6020ADF8000000
:101B50000120ADF80200ADF806500020ADF80800F5
:101B60006946144800F01AFE6946124800F06CFEFF
:101B70006946104800F0D4FE69460E4800F02EFF7A
:101B800001210C4800F06EFD08210A4800F0BBFE60
:101B90000121084800F078FD40F2E9335A1E114651
:101BA000104600F009F807B030BD00003C040020EA
:101BB00040420F00000400402DE9F04104460F466A
:101BC00015461E462146084800F056FF394606488D
:101BD00000F054FF2946044800F052FF3146024805
:101BE00000F050FFBDE8F0810004004070470000A5
:101BF00029B1064AD2690243044BDA6104E0034A80
:101C0000D2698243014BDA61704700000010024044
:101C100029B1064A92690243044B9A6104E0034ADF
:101C200092698243014B9A617047000000100240A4
:101C300030B500210022002400232D4D6D6805F0F1
:101C40000C0121B1042905D0082923D105E0294D33
:101C5000056022E0274D05601FE0254D6D6805F405
:101C60007012234D6D6805F48034022505EB924215
:101C70001CB9214D554305600BE01D4D6D6805F401
:101C800000351DB11C4D5543056002E0194D55430B
:101C9000056002E0174D056000BF00BF144D6D6880
:101CA00005F0F0010909154D6B5C0568DD404560E4
:101CB0000F4D6D6805F4E061090A104D6B5C4568D5
:101CC000DD4085600A4D6D6805F46051C90A0B4D11
:101CD0006B5C4568DD40C560054D6D6805F44041AD
:101CE000890B074D6B5CC568B5FBF3F5056130BD2D
:101CF0000010024000127A0000093D00500400204C
:101D000060040020704710B500F002F810BD00001C
:101D10000CB50020019000903348006840F48030FA
:101D20003149086000BF3048006800F4003000907E
:101D30000198401C0190009818B90198B0F5A06F67
:101D4000F1D12948006800F4003010B10120009062
:101D500001E0002000900098012843D1234800684A
:101D600040F01000214908600846006820F0030098
:101D700008600846006840F0020008601A484068A1
:101D8000194948600846406848600846406840F481
:101D9000806048600846406820F47C10486008462F
:101DA000406840F4E81048600846006840F08070E1
:101DB000086000BF0C48006800F000700028F9D0EF
:101DC0000948406820F00300074948600846406819
:101DD00040F00200486000BF0348406800F00C007B
:101DE0000828F9D10CBD000000100240002002407C
:101DF0000120054908700548007820B103480078A3
:101E0000401E0249087070470400002005000020B1
:101E100038B504460D4600204FF0E021886105FBEF
:101E200004F000EB4001C1EBC0104FF0E02148612D
:101E300003200861E11704EB5171C1F3C701114A96
:101E400011701046007800EB4001C1EBC0104FF656
:101E5000FF7101EAC0000C4908804FF4C060FFF731
:101E60004BF9FF208DF8000003208DF801000020C1
:101E70008DF8020001208DF803006846FFF704F991
:101E800038BD0000000000200200002010B51348FB
:101E9000006840F001001149086008464068104998
:101EA00008400E494860084600680E4908400B4942
:101EB00008600846006820F48020086008464068F2
:101EC00020F4FE0048604FF41F008860FFF71BFFFE
:101ED0004FF000600449086010BD0000001002408F
:101EE0000000FFF8FFFFF6FE08ED00E0F0B50C463D
:101EF000154600220021068C4FF6FE773E400684F0
:101F0000028B018C4FF60C7632407E1C06EA0316DB
:101F10002E433243104EB0420ED0104EB0420BD082
:101F2000B0F1804F08D00E4EB04205D00D4EB042F9
:101F300002D00D4EB04206D14FF6FD76314044F04E
:101F40000106314305E04FF6F576314044F00106D5
:101F5000314302830184F0BD002C01400034014074
:101F60000004004000080040000C0040F0B50C46A2
:101F70001546002200210026078C4FF6EF7C07EA69
:101F80000C070784028B018C4FF6FF7707EA0416D3
:101F900040F6FF473A404FF6FF7707EA03373A43E8
:101FA0004FF6FF7707EA05273A43114FB8420ED0A4
:101FB000104FB8420BD0B0F1804F08D00E4FB8424E
:101FC00005D00E4FB84202D00D4FB84206D14FF6A1
:101FD000DF77394046F01007394305E04FF65F7769
:101FE000394044F01007394302830184F0BD0000FA
:101FF000002C014000340140000400400008004073
:10200000000C0040F0B50C461546002200210026C9
:10201000078C4FF6FF6C07EA0C070784828B018C54
:102020004FF6FF7707EA04264FF60C773A404FF653
:10203000FF7707EA03172F433A43114FB8420ED0F8
:10204000104FB8420BD0B0F1804F08D00E4FB842BD
:1020500005D00E4FB84202D00D4FB84206D14FF610
:10206000FF57394046F48077394305E04FF2FF5778
:10207000394044F48077394382830184F0BD000005
:10208000002C0140003401400004004000080040E2
:10209000000C0040F0B50C46154600220021002639
:1020A000078C4EF6FF7C07EA0C070784828B018CB5
:1020B0004FF6FF7707EA043640F6FF473A404FF6FF
:1020C000FF7707EA05273A434FF6FF7707EA03371A
:1020D0003A43114FB8420ED0104FB8420BD0B0F176
:1020E000804F08D00E4FB84205D00E4FB84202D0F4
:1020F0000D4FB84206D14DF6FF77394046F4805770
:10210000394305E047F6FF57394044F480573943D7
:1021100082830184F0BD0000002C014000340140A6
:102120000004004000080040000C004070B5012190
:102130004F4800F0C2FA00287ED04E480068401C8C
:102140004C4908604C480088401C4B4908800846B0
:102150000088C8281ADB0020088048484088401CB6
:1021600046494880084640883C280FDB00204880CC
:1021700008468088401C8880084680883C2805DB0B
:10218000002088800846C088401CC8803A480088E3
:102190003A490880FFF778FB3949B1F90000FEF7AA
:1021A000ABF805464FF08E41FEF768F80446354916
:1021B000FEF732F8344908603149B1F90200FEF700
:1021C0009BF805464FF08E41FEF758F804462D491E
:1021D000FEF722F82D4908602949B1F90400FEF7FD
:1021E0008BF805464FF08E41FEF748F80446254926
:1021F000FEF712F8264908602649B1F90000FEF7FB
:102200007BF805464FF08E41FEF738F80446224928
:10221000FEF702F8214908601E49B1F90200FEF7F5
:102220006BF805464FF08E41FEF728F804461A4930
:10223000FDF7F2FF1A4900E018E008601549B1F90E
:102240000400FEF759F805464FF08E41FEF716F8E8
:1022500004461149FDF7E0FF12490860FEF7A9FBAB
:10226000FEF720FC0121024800F00BFA70BD0000CF
:10227000002C01406C030020680300206003002054
:10228000E0030020000034434C03002050030020F2
:1022900048030020D80300200000FA44580300201F
:1022A0005C0300205403002030B585B005460C4681
:1022B00001210420FFF79CFC01210820FFF7A8FC66
:1022C0004FF47070ADF8100028208DF8130004A9A9
:1022D0002E48FEF774FD4FF470712C48FEF7FAFD9E
:1022E000ADF80850ADF804400020ADF80A00ADF894
:1022F000060001A9264800F0F5FB002025490880CA
:102300004880012088800020C8800881204800F093
:10231000E5F904201F4908800020488001208880BA
:102320000020C88008811A4800F0D8F9082019490F
:10233000088000204880012088800020C880088113
:10234000134800F0CBF90C20124908800020488087
:10235000012088800020C88008810D4800F0BEF967
:102360001E208DF8000001208DF801008DF803007B
:102370006846FEF789FE01221E21054800F004FA96
:102380000121034800F080F905B030BD000C014088
:10239000000800406404002010B59948007800F05F
:1023A0008000002846D10221964800F086F90028D6
:1023B00040D00221934800F064F99148007800F081
:1023C000400040B38F4800F06BF98F490880084601
:1023D00000888E490988884204DA4FF6FF708C49DC
:1023E000086002E000208A49086087480088874921
:1023F0000988401A864909680844864908600846E1
:1024000000688549086000207D49087000217D48EA
:1024100000F010FA0EE07B4800F042F97B4908809A
:102420007748007840F040007549087002217548EF
:1024300000F000FA7948007800F08000002846D1CA
:102440000421704800F039F9002840D004216D487B
:1024500000F017F97148007800F0400040B3694877
:1024600000F021F96E490880084600886D49098806
:10247000884204DA4FF6FF706B49086002E00020E2
:10248000694908606648008866490988401A6649B3
:10249000096808446549086008460068644908609E
:1024A00000205E4908700021564800F01FFA0EE037
:1024B000544800F0F8F85B4908805848007840F02C
:1024C00040005649087002214E4800F00FFA594862
:1024D000007800F08000002845D10821494800F02C
:1024E000ECF880B30821474800F0CBF85148007859
:1024F00000F0400040B3434800F0D8F84E4908804F
:10250000084600884D490988884204DA4FF6FF7072
:102510004B49086002E000204949086046480088AD
:1025200046490988401A46490968084445490860EF
:10253000084600684449086000203E4908700021B0
:10254000304800F03DFA0EE02E4800F0AFF83B496D
:1025500008803848007840F0400036490870022171
:10256000284800F02DFA3948007800F08000A8BB18
:102570001021244800F0A1F880B31021214800F078
:1025800080F83248007800F0400040B31D4800F069
:1025900090F82F490880084600882E49098888420B
:1025A00004DA4FF6FF702C49086002E000202A4947
:1025B00008602748008827490988401A2649096881
:1025C000084426490860084600682549086000203C
:1025D0001E49087000210B4800F03EFA0EE0094841
:1025E00000F067F81B4908801848007840F0400068
:1025F000164908700221034800F02EFA10BD0000B1
:1026000070030020000800407403002072030020C3
:102610009803002088030020A803002076030020F0
:102620007A030020780300209C0300208C03002004
:10263000AC0300207C030020800300207E030020E8
:10264000A003002090030020B0030020820300209C
:102650008603002084030020A403002094030020AC
:10266000B403002021B1028842F08002028004E01D
:1026700002884FF67F731A4002807047CA43028275
:102680007047CA430282704721B1028842F00102BA
:10269000028004E002884FF6FE731A400280704701
:1026A0000146888E70470146088F70470146888F23
:1026B00070470146B1F84000704730B5024600202F
:1026C00000230024158A05EA0103958905EA01041F
:1026D00013B10CB1012000E0002030BD70B50546FB
:1026E0000C46244885420ED0234885420BD0B5F1D4
:1026F000804F08D02148854205D02148854202D02C
:102700002048854200D100E000BF208850B92389CD
:10271000A28861882846FFF7E9FBE188284600F097
:10272000B4F925E0208804280AD12389A288618889
:102730002846FFF71BFCE188284600F0AFF917E0B8
:10274000208808280AD12389A28861882846FFF7B3
:1027500059FCE188284600F0AEF909E02389A288F7
:1027600061882846FFF796FCE188284600F0ACF91E
:1027700070BD0000002C0140003401400004004006
:1027800000080040000C00401AB183890B4383818C
:1027900002E083898B4383817047000070B5002479
:1027A00000220023058C4FF6FE7635400584028C0E
:1027B0008388048B4FF68F752C40B51E2C400D88F6
:1027C0002C43751E2A400D892A434D882A43144DF7
:1027D000A8420BD0134DA84208D0134DA84205D0F3
:1027E000124DA84202D0124DA84213D14FF6F775F0
:1027F0002A404D892A434FF6FB752A408D882A438B
:102800004FF6FF652B404FF6FF552B408D892B432C
:10281000CD892B4383800483CD888586028470BD57
:10282000002C0140003401400040014000440140C0
:10283000004801400A460021018C4FF6FD73194003
:10284000114301847047000070B50024002200236A
:10285000058C4FF6EF7635400584028C8388048B17
:1028600048F6FF752C404FF6FF452C400D884FF67B
:10287000FF7606EA05252C434FF6DF752A400D89C1
:1028800006EA05152A434D8806EA05152A43154D23
:10289000A84202D0144DA8421DD14FF67F752A40A0
:1028A0004D894FF6FF7606EA05152A434FF6BF75A8
:1028B0002A408D8806EA05152A434FF6FF352B403E
:1028C0004FF2FF752B408D8906EA85052B43CD8994
:1028D00006EA85052B4383800483CD88058702841F
:1028E00070BD0000002C0140003401400A46002168
:1028F000018C4FF6DF7319404FF6FF7303EA0213A2
:102900001943018470470A460021018B4FF2FF737F
:1029100019404FF6FF7303EA0223194301837047FE
:1029200070B5002400220023058C4FF6FF66354069
:102930000584028C8388848B4FF68F752C404FF66C
:10294000FC752C400D882C434FF6FF552A400D890D
:102950004FF6FF7606EA05252A434D8806EA052547
:102960002A43154DA84202D0144DA8421DD14FF262
:10297000FF752A404D894FF6FF7606EA05252A4362
:102980004FF6FF352A408D8806EA05252A434EF684
:10299000FF752B404DF6FF752B408D8906EA051516
:1029A0002B43CD8906EA05152B4383808483CD888C
:1029B0008587028470BD0000002C01400034014076
:1029C0000A460021018C4FF6FF5319404FF6FF7362
:1029D00003EA0223194301847047000070B5002206
:1029E00000230024058C4EF6FF7635400584038CC9
:1029F0008488828B48F6FF752A404FF6FF452A40AF
:102A00000D884FF6FF7606EA05252A434DF6FF7539
:102A10002B400D8906EA05352B434D8806EA05351E
:102A20002B430B4DA84202D00A4DA84208D14BF6C9
:102A3000FF752C408D894FF6FF7606EA85152C43ED
:102A400084808283CD88A0F84050038470BD00004C
:102A5000002C0140003401400A460021018C4DF653
:102A6000FF7319404FF6FF7303EA023319430184E1
:102A70007047018582827047818670470187704761
:102A800081877047A0F840107047028B4FF6F373B0
:102A90001A400283028B0A4302837047028B4FF273
:102AA000FF331A400283028B4FF6FF7303EA0123C0
:102AB0001A4302837047828B4FF6F3731A40828366
:102AC000828B0A4382837047828B4FF2FF331A4016
:102AD0008283828B4FF6FF7303EA01231A438283BA
:102AE00070470000002202881D4B98420ED01D4BFB
:102AF00098420BD0B0F1804F08D01B4B984205D0C4
:102B00001A4B984202D01A4B984204D14FF68F7359
:102B10001A404B881A43174B984207D0164B9842DD
:102B200004D04FF6FF431A40CB881A4302808B88AB
:102B300083850B8803850A4B98420BD0094B98423A
:102B400008D00E4B984205D00D4B984202D00D4B49
:102B5000984201D10B7A03860123838270470000DB
:102B6000002C0140003401400004004000080040F7
:102B7000000C0040001000400014004000400140E4
:102B8000004401400048014000B50B48FEF778FEC4
:102B90000948F838FEF774FE0748F830FEF770FE73
:102BA0000648FEF76DFE04487C38FEF769FE0248D1
:102BB0007C30FEF765FE00BDDC07002068060020C3
:102BC0000EB50121C802FFF723F841F28830ADF8B5
:102BD00004004720ADF800000020ADF80600ADF875
:102BE00002008DF8080069460848FFF77BFF0121C5
:102BF0000648FFF743FD012241210448FFF7C4FDC9
:102C000001210248FFF740FD0EBD0000002C0140ED
:102C100010B500210D48FEF7B5FD01210B487C30B1
:102C2000FEF7B0FD02210948F830FEF7ABFD0321A5
:102C30000748FEF7A7FD042105487C30FEF7A2FDFA
:102C400005210348F830FEF79DFD10BD6806002001
:102C5000DC07002010B540F227711C4800F062F834
:102C6000E0B11B4802780078401C194B18701948D5
:102C7000815C164800F012F940F22771134800F009
:102C800036F81348007814490978884217D1002291
:102C900040F227710D4800F06FF810E040F2255126
:102CA0000A4800F03FF850B10849091D0988C8B228
:102CB000FEF700F840F22551044800F018F84FF4F0
:102CC0005871024800F013F810BD000000440040A5
:102CD000100400206E0400201104002001F4007292
:102CE000B2F5007F00D100BFCA430280704710B523
:102CF0000022002340F66A14A14200D100BF0A124C
:102D000001249440A3B2DC43048010BD21B1828928
:102D100042F40052828104E082894DF6FF731A402A
:102D20008281704770B502460024002300250020F0
:102D300040F66A16B14200D100BFC1F3421501F05E
:102D40001F03012606FA03F3012D02D196893340B1
:102D500006E0022D02D1168A334001E0968A334004
:102D60000C12012606FA04F41688344013B10CB193
:102D7000012000E0002070BDF0B5034600240026CD
:102D80000025002040F66A17B94200D100BF18465E
:102D9000C1F3421401F01F06012707FA06F5012CC2
:102DA00001D10C3004E0022C01D1103000E01430CD
:102DB0001AB107682F43076002E00768AF43076056
:102DC000F0BD00002DE9F04786B005460E46002410
:102DD000A24600BFA1460027B08900B100BF2F4620
:102DE0002C8A4CF6FF700440F08804432C82AC8996
:102DF0004EF6F3100440B0883189084371890843C6
:102E00000443AC81AC8A4FF6FF400440B0890443D0
:102E1000AC8201A8FEF70CFF1F48874202D1DDF803
:102E200010A001E0DDF80CA0A88900F4004040B13A
:102E30000AEBCA0000EB0A1031684900B0FBF1F858
:102E400007E00AEBCA0000EB0A1031688900B0FB0A
:102E5000F1F86420B8FBF0F004012009642101FBC3
:102E60001089A88900F4004040B1322000EBC9006D
:102E7000B0FBF1F000F00700044308E0322000EB63
:102E800009106421B0FBF1F000F00F0004432C8125
:102E900006B0BDE8F087000000380140C1F3080229
:102EA0008280704700BFFEE703468A4201DB0A4684
:102EB00002E09A4200DC1A46104670470FB4084BF5
:102EC00010B504A902AA039800F0CEF8044602A99E
:102ED000002000F060FC204610BC5DF814FB0000F0
:102EE0009737000802E008C8121F08C1002AFAD16B
:102EF00070477047002001E001C1121F002AFBD17A
:102F0000704700002DE9FF5FDDE90220010DDDF8CB
:102F100038B0024318D044F61050A1F2FF314143BB
:102F20000D140F98012820D0A5EB0B00401C5FEA80
:102F3000000A4FF00004474EDFF81C91A0465046AF
:102F400016D5CAF1000728E00F98012443A20128F2
:102F500008D0002100980F9BC0E90021C0E902437E
:102F6000BDE8FF9F6FEA0B01F4E7CBF10000DEE75D
:102F7000074612E0F80707D0224633464046494646
:102F8000FDF741FB804689462246334610461946E6
:102F9000FDF739FB04460E467F10002FEAD1DDE92C
:102FA0000201BAF1000F42464B4602DAFDF72BFB55
:102FB00001E0FDF79AFB04460E460022284BFDF780
:102FC0001BFC03D84FF0FF30014607E00022254BE1
:102FD00020463146FDF770FAFDF7F6FB102409E0B4
:102FE000002C0ADB0A220023FDF7FEF9019B303298
:102FF0001A55641E50EA0102F2D1641C019AC4F110
:10300000110314440F9A012A03D0012208430DD161
:103010000AE0084304D000204FF0110B0F9080E726
:10302000A3EB0B056D1E0DE05B4504DD4FF00002C8
:1030300005F1010504E003DA4FF00002A5F10105F6
:10304000002AECD000980F99C0E90231C0E9004590
:1030500086E70000000024400000F03F3000000040
:103060000000F0430000E03F2DE9FF4F95B09B4684
:103070008946064600250FE2252877D100242746F9
:10308000F84A0121059400E0044316F8013F203B73
:1030900001FA03F01042F7D130782A2811D06FF0EE
:1030A0002F033078A0F13002092A16D8059A44F08F
:1030B000020402EB820203EB42021044761C0590EC
:1030C000EFE759F8042B0592002A03DA504244F442
:1030D0000054059044F00204761C30782E2816D156
:1030E00016F8010F44F004042A280DD06FF02F02C7
:1030F0003078A0F13003092B09D807EB870302EBE6
:103100004303C718761CF3E759F8047B761C307824
:103110006C280FD006DC4C2817D068280DD06A2800
:1031200014D104E0742810D07A280FD10DE044F4B3
:1031300000140AE044F4801401E044F4401472786E
:10314000824202D104F58014761C761C3078662801
:103150000BD013DC582877D009DC002875D045281F
:10316000F6D04628F4D047281AD19DE118E063280C
:1031700035D0642879D0652812D195E1702873D0B4
:1031800008DC6728F1D069286FD06E280DD06F2831
:1031900006D1B5E073282CD0752875D0782874D066
:1031A0005A46179990476D1C75E1C4F302500228E6
:1031B00009D003280DD0D9F8001004280DD00D60D7
:1031C00009F1040967E1D9F80010EA17C1E90052D2
:1031D000F6E7D9F800100D80F2E70D70F0E719F866
:1031E000041B8DF8001000208DF80100EA46012034
:1031F00003E059F804AB4FF0FF3061074FF00001D6
:1032000002D40DE008F101018846B9420FDA804589
:10321000F8DB1AF808100029F4D108E008F10101E0
:1032200088468142FADB1AF808100029F6D1059881
:103230005B46A0EB080721463846179A00F094FA3F
:10324000284400EB080507E04DE029E10DE01AF8FD
:10325000010B5A4617999047B8F10108F7D25B461F
:1032600021463846179A13E142E00A220092C4F33D
:1032700002524FF0000A022A08D059F804CB032A60
:103280004FEAEC710AD00DE029E02AE009F10701CC
:1032900021F00702F2E802C1914609E00FFA8CFC26
:1032A0004FEAEC71042A03D14FFA8CFC4FEAEC711F
:1032B000002907DA0A460021DCF1000C61EB02016B
:1032C0002D2202E0220504D52B228DF804200122B4
:1032D00003E0E20701D02022F7E7904659E00A21F7
:1032E00002E010220DE010214FF0000A00910BE0E7
:1032F00010224FF0000A44F004040827009203E073
:1033000008224FF0000A0092C4F30252022A05D0AC
:1033100059F804CB0021032A08D009E009F107017C
:1033200021F00702F2E802C1914605E01FFA8CFC89
:10333000042A01D10CF0FF0C4FF00008220728D519
:10334000702806D0009B83F0100353EA0A0305D0CF
:103350000EE040228DF80420012208E05CEA010220
:1033600006D030228DF804208DF805000222904608
:10337000009B83F0080353EA0A030AD15CEA0102C6
:1033800001D1620705D530228DF804204FF00108E5
:103390007F1E582804D034A003900EA802900DE0A0
:1033A00036A0F9E753466046009AFDF71DF88446BB
:1033B0000398825C0298401E029002705CEA010051
:1033C000F0D1029806A9081A00F1200A600702D578
:1033D00024F4803400E00127574502DDA7EB0A0002
:1033E00000E0002000EB0A01009005984144401ADB
:1033F0000590E00306D45B462146179A059800F035
:10340000B3F90544002706E001A85A46C05D1799A4
:1034100090476D1C7F1C4745F6DBE0030CD55B46EF
:103420002146179A059800F09FF9054404E03020E2
:103430005A46179990476D1C0099481E0090002924
:10344000F5DC08E0029802995A460078491C02917E
:10345000179990476D1CBAF10001AAF1010AF1DC3D
:1034600065E1000009280100303132333435363748
:1034700038396162636465660000000030313233C0
:103480003435363738394142434445460000000060
:1034900000F058F90544761C307800287FF4ECAD34
:1034A00019B02846BDE8F08F620700D4062709F15D
:1034B000070222F0070CFCE80223E14603F0004873
:1034C0005FEA080C02D00FF2702C0DE05FEA045C9A
:1034D00002D50FF2682C07E05FEAC47C02D00FF23D
:1034E000602C01E0AFF2700C4FF0FF3823F0004386
:1034F000CDF850C065280CD006DC452809D04628F8
:103500001DD047283DD13DE0662818D067287ED1E0
:1035100038E00021112F01DB112000E0781CCDE9FB
:10352000000106A90EA8FFF7EDFCDDE90F010E9AD8
:1035300003910021009207F1010A04914DE04FF040
:1035400000400097CDE9011006A90EA8FFF7DAFCAC
:10355000DDE90F0203920E9B11990022DDF80CA009
:103560000093049211B9791C00EB010AB7EB0A0031
:1035700004D4C0F1FF3007F1010A0490AAEB070060
:10358000019044E0012F00DA01270021112F01DD15
:10359000112000E03846CDE9000106A90EA8FFF78A
:1035A000B1FCDDE90F010E9A039100210491009214
:1035B000BA4621070CD40399514500DA8A46BAF17C
:1035C000010F05DD009AAAF10101515C302908D0F4
:1035D000B84202DA10F1040F06DA0121CDE9011038
:1035E00015E0AAF10101E9E7002805DC049901448E
:1035F0000491AAEB000102E0411C514500DD8A461E
:103600000499401A401C01904FF00040029020079E
:1036100004D40198504501DBCDF8048000208DF8DA
:103620004F0002980DF14F07B0F1004F25D02B202D
:103630000E9002984FF0020800280CDA40420290E7
:103640002D200E9007E00A210298FCF7B7FE3031DA
:10365000029007F8011DB8F10001A8F10108F2DCA1
:1036600002980028EFD1791E0E980870307800F08B
:10367000200040F0450007F8020D12A8C01B00F121
:1036800007081498007800B1012000EB0A010198A6
:1036900001EBE07105984144401A401E0590E0039B
:1036A00006D45B462146179A059800F05DF805445C
:1036B0001498007818B15A46179990476D1CE0038A
:1036C00024D55B462146179A059800F04DF805442D
:1036D0001CE00498002807DBDDE90301884203DDD4
:1036E0000098405C179901E0179930205A4690479E
:1036F000049805F10105401C04900198401E0190BA
:1037000004D12E205A46179990476D1CBAF100013A
:10371000AAF1010ADDDC05E017F8010B5A461799FA
:1037200090476D1CB8F10001A8F10108F4DC5B467C
:103730002146179A0598ABE62D0000002B000000EB
:10374000200000002DE9F041044600251E461746E2
:10375000880404D405E039462020B0476D1C641E5F
:10376000F9D52846BDE8F0812DE9F0410446002551
:103770001E469046C80301D5302700E02027880464
:1037800004D505E041463846B0476D1C641EF9D5A6
:103790002846BDE8F0810A68531C0B601070704722
:1037A00030B503464FF0E024A169254C248803FB83
:1037B00004F200204FF0E0246469B2FBF4F4214DE0
:1037C0002C704FF0E0246469B2FBF4F504FB152083
:1037D000814215D9081A00BF1A4C2478002CFBD15D
:1037E0000A2806D200BF4FF0E024A4690A2CFAD8B8
:1037F00024E000BF4FF0E024A4698442FAD81DE021
:10380000104C2478641C0F4D2C704FF0E024646938
:103810000C44201A00BF0B4C2478002CFBD10A2842
:1038200006D200BF4FF0E024A4690A2CFAD805E0C4
:1038300000BF4FF0E024A4698442FAD830BD0000F4
:1038400002000020050000209EB00A214820FEF75B
:10385000DFFA4FF4E130FDF7A5FBFDF777FC00F050
:1038600062F9FDF753FC4FF47A70FFF799FF1AE104
:103870008D4840880A2190FBF1F201FB12000528D7
:103880007EDC8948408890FBF1F201FB120008B908
:10389000FDF73CFC072200210846FDF733FD082216
:1038A00000211220FDF72EFD092200212420FDF722
:1038B00029FD0A2200213620FDF724FD0B220021DC
:1038C0004820FDF71FFD0C2200215A20FDF71AFDAC
:1038D00075484088009074488388C28873A105A801
:1038E000FFF7ECFA05AA02210020FDF7B9FD7249A5
:1038F000B1F90400FCF700FD4FF08E410490FCF795
:10390000BDFC83466D49FCF787FC8246FCF72FFD22
:1039100004460D466849B1F90200FCF7EDFC4FF092
:103920008E410490FCF7AAFC83466449FCF774FCC2
:103930008246FCF71CFD06460F465F49B1F90000C0
:10394000FCF7DAFC4FF08E410490FCF797FC8346BD
:103950005A49FCF761FC8246FCF709FD8046424665
:103960000B4657A105A8CDE90067CDE90245FFF751
:10397000A5FA05AA04210020FDF772FD93E0FFE7F8
:10398000494840880A2190FBF1F201FB1200062809
:1039900001D1FDF7BBFB5049B1F90400FCF7ACFCC9
:1039A0004FF08E410490FCF769FC83464B49FCF7CD
:1039B00033FC8246FCF7DBFC04460D464649B1F970
:1039C0000200FCF799FC4FF08E410490FCF756FC86
:1039D00083464249FCF720FC8246FCF7C8FC80463F
:1039E00089463D49B1F90000FCF786FC4FF08E4155
:1039F0000490FCF743FC83463849FCF70DFC8246F3
:103A0000FCF7B5FC064632460B4635A105A8CDE9C4
:103A10000089CDE90245FFF751FA05AA00210846C1
:103A2000FDF71EFD102000903348B0F9002002235E
:103A300004210020FDF7D2FC102000902E48B0F9A0
:103A40000220022304211220FDF7C8FC10200523C8
:103A500000902A48028804212620FDF7BFFC102090
:103A6000052300902648028804214E20FDF7B6FC6D
:103A70001020052300902348028806210020FDF72E
:103A8000ADFC1020052300901F4802880621292044
:103A9000FDF7A4FC1020052300901C480288062195
:103AA0004F20FDF79BFCE3E66003002025643A25E8
:103AB000643A25640D000000E00300200000344358
:103AC000416E676C653A252E336620252E336620BD
:103AD000252E33660D0A0000D80300200000FA44AA
:103AE0004779726F3A252E336620252E33662025BE
:103AF0002E33660D0A000000C003002030040020B1
:103B000032040020B80300203404002036040020D2
:103B100010B50246012000E050430B00A1F1010462
:103B2000E1B2F9D110BD10B5FDF7ECFFFDF776FF5E
:103B3000FFF76EF847214FF6FF70FEF7B5FBFFF772
:103B40003FF8FDF78CFA10BD0000000000000000F7
:103B5000002F000000000700070000147F147F14EE
:103B600000242A7F2A120062640813230036495574
:103B7000225000000503000000001C22410000004C
:103B800041221C000014083E08140008083E0808E2
:103B9000000000A06000000808080808000060603D
:103BA0000000002010080402003E5149453E00007C
:103BB000427F4000004261514946002141454B315E
:103BC000001814127F10002745454539003C4A492A
:103BD000493000017109050300364949493600069C
:103BE0004949291E00003636000000005636000004
:103BF000000814224100001414141414000041227F
:103C0000140800020151090600324959513E007C56
:103C10001211127C007F49494936003E4141412240
:103C2000007F4141221C007F49494941007F090929
:103C30000901003E4149497A007F0808087F0000D9
:103C4000417F4100002040413F01007F0814224194
:103C5000007F40404040007F020C027F007F04084C
:103C6000107F003E4141413E007F09090906003EA8
:103C70004151215E007F09192946004649494931D1
:103C80000001017F0101003F4040403F001F2040F4
:103C9000201F003F4038403F0063140814630007B2
:103CA0000870080700615149454300007F41410009
:103CB00000552A552A55000041417F0000040201A9
:103CC0000204004040404040000001020400002087
:103CD00054545478007F48444438003844444420C5
:103CE00000384444487F00385454541800087E0972
:103CF00001020018A4A4A47C007F0804047800003A
:103D0000447D4000004080847D00007F10284400F6
:103D10000000417F4000007C04180478007C080407
:103D2000047800384444443800FC24242418001843
:103D3000242418FC007C080404080048545454202F
:103D400000043F444020003C4040207C001C2040B8
:103D5000201C003C4030403C004428102844001CFB
:103D6000A0A0A07C004464544C44141414141414F3
:103D70000000000000000000000000000000000043
:103D8000000000F8000000000000003330000000D8
:103D900000100C06100C06000000000000000000DF
:103DA00040C07840C0784000043F04043F04040051
:103DB000007088FC08300000001820FF211E000061
:103DC000F008F000E018000000211C031E211E0076
:103DD00000F00888700000001E21232419272110FC
:103DE00010160E000000000000000000000000009F
:103DF000000000E018040200000000071820400046
:103E000000020418E0000000004020180700000035
:103E1000404080F0804040000202010F0102020099
:103E2000000000F0000000000101011F010101007D
:103E3000000000000000000080B0700000000000E2
:103E4000000000000000000000010101010101016B
:103E50000000000000000000003030000000000002
:103E600000000000806018040060180601000000D7
:103E700000E010080810E000000F102020100F00D4
:103E8000001010F8000000000020203F202000005B
:103E900000700808088870000030282422213000B3
:103EA00000300888884830000018202020110E00BB
:103EB0000000C02010F8000000070424243F240064
:103EC00000F80888880808000019212020110E0039
:103ED00000E0108888180000000F112020110E004B
:103EE00000380808C83808000000003F0000000043
:103EF0000070880808887000001C222121221C0004
:103F000000E010080810E0000000312222110F002C
:103F1000000000C0C00000000000003030000000C1
:103F20000000008000000000000080600000000031
:103F3000000080402010080000010204081020004A
:103F40004040404040404000040404040404040095
:103F5000000810204080000000201008040201002A
:103F6000007048080808F00000000030360100002A
:103F7000C030C828E810E0000718272423140B00DD
:103F80000000C038E0000000203C23020227382057
:103F900008F8888888700000203F202020110E003B
:103FA000C030080808083800071820202010080032
:103FB00008F808080810E000203F202020100F001B
:103FC00008F88888E8081000203F202023201800E7
:103FD00008F88888E8081000203F2000030000004F
:103FE000C03008080838000007182020221E0200F0
:103FF00008F808000008F808203F210101213F20AF
:10400000000808F8080800000020203F20200000D9
:1040100000000808F8080800C08080807F000000C9
:1040200008F888C028180800203F20012638200002
:1040300008F8080000000000203F20202020300069
:1040400008F8F800F8F80800203F003F003F200083
:1040500008F830C00008F808203F200007183F008B
:10406000E01008080810E0000F10202020100F00BA
:1040700008F808080808F000203F210101010000AD
:10408000E01008080810E0000F18242438504F00F2
:1040900008F8888888887000203F2000030C3020B2
:1040A00000708808080838000038202121221C00F0
:1040B000180808F8080818000000203F2000000039
:1040C00008F808000008F808001F202020201F0022
:1040D0000878880000C83808000007380E01000082
:1040E000F80800F80008F800033C0700073C03004C
:1040F000081868808068180820302C03032C3020B2
:104100000838C800C83808000000203F2000000020
:1041100010080808C8380800203826212020180078
:10412000000000FE020202000000007F404040004C
:10413000000C30C000000000000000010638C00084
:1041400000020202FE000000004040407F0000002C
:104150000000040202020400000000000000000051
:10416000000000000000000080808080808080804F
:104170000002020400000000000000000000000037
:1041800000008080808000000019242222223F202D
:1041900008F8008080000000003F112020110E0070
:1041A0000000008080800000000E112020201100FF
:1041B000000000808088F800000E112020103F20B1
:1041C0000000808080800000001F22222222130035
:1041D000008080F0888888180020203F2020000080
:1041E0000000808080808000006B94949493600035
:1041F00008F8008080800000203F210000203F2040
:1042000000809898000000000020203F202000003F
:10421000000000809898000000C08080807F00002F
:1042200008F8000080808000203F24022D3020000C
:10423000000808F8000000000020203F20200000B7
:104240008080808080808000203F20003F20003FD1
:104250008080008080800000203F210000203F20DF
:104260000000808080800000001F202020201F0090
:10427000808000808000000080FFA12020110E00BF
:104280000000008080808000000E112020A0FF80B0
:10429000808080008080800020203F21200001005D
:1042A00000008080808080000033242424241900B2
:1042B000008080E0808000000000001F20200000BF
:1042C0008080000000808000001F202020103F2000
:1042D000808080000080808000010E300806010090
:1042E00080800080008080800F300C030C300F0035
:1042F00000808000808080000020312E0E31200060
:10430000808080000080808080818E70180601008F
:1043100000808080808080000021302C22213000AD
:1043200000000000807C020200000000003F4040CE
:1043300000000000FF00000000000000FF0000007F
:104340000002027C800000000040403F00000000AE
:104350000006010102020404000000000000000049
:104360000000803F0000803F0000000000000000CF
:1043700000000000000000000000000000000C42EF
:1043800000000000000000000000A041000090407C
:10439000000000000000000000000000000000001D
:1043A00000007A43000000000000803F0000000091
:1043B00000000000000000000000000000000000FD
:1043C0000000FA4300000000000000000000484325
:1043D0009A99593F8FC2753C000090400000000040
:1043E000000000000000FA430000803F0000803F12
:1043F00000000000000000000000000000000000BD
:104400000000000000000C4200000000000000005E
:104410000000A041000090400000000000000000EB
:10442000000000000000000000007A4300000000CF
:104430000000803F000000000000000000000000BD
:1044400000000000000000000000FA43000000002F
:1044500000000000000048439A99593F8FC2753C04
:104460000000904000000000000000000000FA433F
:104470000000803F0000803F0000000000000000BE
:1044800000000000000000000000000000003442B6
:104490000000000000000000000000000000D0400C
:1044A000000000000000000000000000000000000C
:1044B000000016430000803F0000803F0000000025
:1044C00000000000000000000000000000000000EC
:1044D00000007A4300000000000000000000C84215
:1044E000000000406F12033C00006040000000002C
:1044F000000000000000964318450008000000205E
:10450000640400005C090008A4460008640400205C
:10451000EC080000F42E0008811BF010012AFF05B2
:104520000215F01B0F04012AFF0502130F180940A2
:1045300040405F55555575041A5F0C091121080C50
:1045400011200F094989790909090F201F112FFE30
:1045500002424ACA4A0304134202FE000E14FF40FC
:10456000504C4340404F50505C40FF1BF888012A9C
:10457000FF050215F81B1F08012A7F200B109F80E2
:10458000E23B808201000916E2A2928A8682808044
:10459000041840807F172424A4FEA3221B22CCAA47
:1045A000011415080601FF2B0104010511FF020289
:1045B000025808101010FF109008C3021108080FCD
:1045C000120444827F01808040432C10284681A041
:1045D000000C1422322AA6A2622111098101000EC8
:1045E000124222130B42827E02020A122346162036
:1045F00030AC6330080A1088C8A8998E88A8C8888B
:104600005E2009672212128040300F05113F4040A2
:10461000711E80828282FE0449060911A0493C3144
:104620000215FF171010D0FF90100614FE020202B0
:10463000FE1B0403393483601F19800212781EFCAC
:10464000848484FC4719010412FF10101A3F1922B8
:104650003F0614010640807F14F801060E15F01283
:104660001212F28229B7161F1111111F09154101EB
:10467000CE1B803E0438113F2F4D92BFBB5AD33E14
:10468000FE258A3DFE250A0881334C042BA24A06EA
:1046900051680901020304060708090C69100500A6
:0446A0000204060802
:0400000508000131BD
:00000001FF
